{
  "_format": "hh3-artifact-1",
  "contractName": "Voting",
  "sourceName": "contracts/Voting.sol",
  "abi": [
    {
      "inputs": [
        {
          "internalType": "string[]",
          "name": "candidateNames",
          "type": "string[]"
        }
      ],
      "stateMutability": "nonpayable",
      "type": "constructor"
    },
    {
      "inputs": [
        {
          "internalType": "address",
          "name": "voter",
          "type": "address"
        }
      ],
      "name": "AlreadyVoted",
      "type": "error"
    },
    {
      "inputs": [
        {
          "internalType": "uint256",
          "name": "index",
          "type": "uint256"
        }
      ],
      "name": "InvalidCandidate",
      "type": "error"
    },
    {
      "inputs": [],
      "name": "NoVotesCast",
      "type": "error"
    },
    {
      "anonymous": false,
      "inputs": [
        {
          "indexed": true,
          "internalType": "address",
          "name": "voter",
          "type": "address"
        },
        {
          "indexed": true,
          "internalType": "uint256",
          "name": "candidateIndex",
          "type": "uint256"
        }
      ],
      "name": "VoteCast",
      "type": "event"
    },
    {
      "inputs": [
        {
          "internalType": "uint256",
          "name": "",
          "type": "uint256"
        }
      ],
      "name": "candidates",
      "outputs": [
        {
          "internalType": "string",
          "name": "name",
          "type": "string"
        },
        {
          "internalType": "uint256",
          "name": "voteCount",
          "type": "uint256"
        }
      ],
      "stateMutability": "view",
      "type": "function"
    },
    {
      "inputs": [
        {
          "internalType": "uint256",
          "name": "candidateIndex",
          "type": "uint256"
        }
      ],
      "name": "getCandidate",
      "outputs": [
        {
          "internalType": "string",
          "name": "",
          "type": "string"
        },
        {
          "internalType": "uint256",
          "name": "",
          "type": "uint256"
        }
      ],
      "stateMutability": "view",
      "type": "function"
    },
    {
      "inputs": [],
      "name": "getWinner",
      "outputs": [
        {
          "internalType": "string[]",
          "name": "winnerNames",
          "type": "string[]"
        },
        {
          "internalType": "bool",
          "name": "isTie",
          "type": "bool"
        }
      ],
      "stateMutability": "view",
      "type": "function"
    },
    {
      "inputs": [
        {
          "internalType": "address",
          "name": "",
          "type": "address"
        }
      ],
      "name": "hasVoted",
      "outputs": [
        {
          "internalType": "bool",
          "name": "",
          "type": "bool"
        }
      ],
      "stateMutability": "view",
      "type": "function"
    },
    {
      "inputs": [],
      "name": "owner",
      "outputs": [
        {
          "internalType": "address",
          "name": "",
          "type": "address"
        }
      ],
      "stateMutability": "view",
      "type": "function"
    },
    {
      "inputs": [
        {
          "internalType": "uint256",
          "name": "candidateIndex",
          "type": "uint256"
        }
      ],
      "name": "vote",
      "outputs": [],
      "stateMutability": "nonpayable",
      "type": "function"
    }
  ],
  "bytecode": "0x608060405234801561000f575f5ffd5b50604051610bc4380380610bc483398101604081905261002e916100ff565b600280546001600160a01b031916331790555f5b81518110156100b4575f604051806040016040528084848151811061006957610069610223565b60209081029190910181015182525f9181018290528354600181018555938252902081519192600202019081906100a090826102bb565b506020919091015160019182015501610042565b5050610375565b634e487b7160e01b5f52604160045260245ffd5b604051601f8201601f191681016001600160401b03811182821017156100f7576100f76100bb565b604052919050565b5f6020828403121561010f575f5ffd5b81516001600160401b03811115610124575f5ffd5b8201601f81018413610134575f5ffd5b80516001600160401b0381111561014d5761014d6100bb565b8060051b61015d602082016100cf565b91825260208184018101929081019087841115610178575f5ffd5b6020850192505b838310156102185782516001600160401b0381111561019c575f5ffd5b8501603f810189136101ac575f5ffd5b60208101516001600160401b038111156101c8576101c86100bb565b6101db601f8201601f19166020016100cf565b8181526040838301018b10156101ef575f5ffd5b8160408401602083015e5f6020838301015280855250505060208201915060208301925061017f565b979650505050505050565b634e487b7160e01b5f52603260045260245ffd5b600181811c9082168061024b57607f821691505b60208210810361026957634e487b7160e01b5f52602260045260245ffd5b50919050565b601f8211156102b657805f5260205f20601f840160051c810160208510156102945750805b601f840160051c820191505b818110156102b3575f81556001016102a0565b50505b505050565b81516001600160401b038111156102d4576102d46100bb565b6102e8816102e28454610237565b8461026f565b6020601f82116001811461031a575f83156103035750848201515b5f19600385901b1c1916600184901b1784556102b3565b5f84815260208120601f198516915b828110156103495787850151825560209485019460019092019101610329565b508482101561036657868401515f19600387901b60f8161c191681555b50505050600190811b01905550565b610842806103825f395ff3fe608060405234801561000f575f5ffd5b5060043610610060575f3560e01c80630121b93f1461006457806309eef43e146100795780633477ee2e146100b057806335b8e820146100d15780638da5cb5b146100e45780638e7ea5b21461010f575b5f5ffd5b610077610072366004610666565b610125565b005b61009b61008736600461067d565b60016020525f908152604090205460ff1681565b60405190151581526020015b60405180910390f35b6100c36100be366004610666565b610208565b6040516100a79291906106d8565b6100c36100df366004610666565b6102bc565b6002546100f7906001600160a01b031681565b6040516001600160a01b0390911681526020016100a7565b6101176103c7565b6040516100a79291906106f9565b335f9081526001602052604090205460ff161561015c57604051633512759d60e21b81523360048201526024015b60405180910390fd5b5f5461016a9060019061077b565b81111561018d57604051630b81c1a160e21b815260048101829052602401610153565b335f9081526001602081905260408220805460ff191690911790558054829081106101ba576101ba610794565b905f5260205f2090600202016001015f81546101d5906107a8565b90915550604051819033907fa36cc2bebb74db33e9f88110a07ef56e1b31b24b4c4f51b54b1664266e29f45b905f90a350565b5f8181548110610216575f80fd5b905f5260205f2090600202015f91509050805f018054610235906107c0565b80601f0160208091040260200160405190810160405280929190818152602001828054610261906107c0565b80156102ac5780601f10610283576101008083540402835291602001916102ac565b820191905f5260205f20905b81548152906001019060200180831161028f57829003601f168201915b5050505050908060010154905082565b5f8054606091906102cf9060019061077b565b8311156102f257604051630b81c1a160e21b815260048101849052602401610153565b5f5f848154811061030557610305610794565b905f5260205f2090600202016040518060400160405290815f8201805461032b906107c0565b80601f0160208091040260200160405190810160405280929190818152602001828054610357906107c0565b80156103a25780601f10610379576101008083540402835291602001916103a2565b820191905f5260205f20905b81548152906001019060200180831161038557829003601f168201915b5050509183525050600191909101546020918201528151910151909590945092505050565b60605f80805b5f54811015610430575f5f82815481106103e9576103e9610794565b905f5260205f209060020201600101541115610428575f818154811061041157610411610794565b905f5260205f209060020201600101549150610430565b6001016103cd565b50805f036104515760405163354ba2d560e01b815260040160405180910390fd5b5f5b5f548110156104b257815f828154811061046f5761046f610794565b905f5260205f2090600202016001015411156104aa575f818154811061049757610497610794565b905f5260205f2090600202016001015491505b600101610453565b505f805b5f548110156104fb57825f82815481106104d2576104d2610794565b905f5260205f20906002020160010154036104f3576104f0826107a8565b91505b6001016104b6565b508067ffffffffffffffff811115610515576105156107f8565b60405190808252806020026020018201604052801561054857816020015b60608152602001906001900390816105335790505b5093505f805b5f5481101561065857835f828154811061056a5761056a610794565b905f5260205f2090600202016001015403610650575f818154811061059157610591610794565b905f5260205f2090600202015f0180546105aa906107c0565b80601f01602080910402602001604051908101604052809291908181526020018280546105d6906107c0565b80156106215780601f106105f857610100808354040283529160200191610621565b820191905f5260205f20905b81548152906001019060200180831161060457829003601f168201915b505050505086838151811061063857610638610794565b60200260200101819052508161064d906107a8565b91505b60010161054e565b506001821193505050509091565b5f60208284031215610676575f5ffd5b5035919050565b5f6020828403121561068d575f5ffd5b81356001600160a01b03811681146106a3575f5ffd5b9392505050565b5f81518084528060208401602086015e5f602082860101526020601f19601f83011685010191505092915050565b604081525f6106ea60408301856106aa565b90508260208301529392505050565b5f604082016040835280855180835260608501915060608160051b8601019250602087015f5b8281101561075057605f1987860301845261073b8583516106aa565b9450602093840193919091019060010161071f565b505050508091505082151560208301529392505050565b634e487b7160e01b5f52601160045260245ffd5b8181038181111561078e5761078e610767565b92915050565b634e487b7160e01b5f52603260045260245ffd5b5f600182016107b9576107b9610767565b5060010190565b600181811c908216806107d457607f821691505b6020821081036107f257634e487b7160e01b5f52602260045260245ffd5b50919050565b634e487b7160e01b5f52604160045260245ffdfea2646970667358221220756492b088bd1d6938988441932fca84ccf31e6b25d68b1cccf0f090fd24ca2964736f6c634300081c0033",
  "linkReferences": {},
  "deployedLinkReferences": {},
  "immutableReferences": {},
  "inputSourceName": "project/contracts/Voting.sol",
  "buildInfoId": "solc-0_8_28-5bfb777ca1822aa57be1632268177e0fe48fedb0"
}